{
  "_format": "hh-sol-artifact-1",
  "contractName": "GovernorContract",
  "sourceName": "contracts/facets/GovernorContract.sol",
  "abi": [
    {
      "inputs": [
        {
          "internalType": "contract IVotes",
          "name": "_token",
          "type": "address"
        },
        {
          "internalType": "contract TimelockController",
          "name": "_timelock",
          "type": "address"
        },
        {
          "internalType": "uint256",
          "name": "_quorumPercentage",
          "type": "uint256"
        },
        {
          "internalType": "uint256",
          "name": "_votingPeriod",
          "type": "uint256"
        },
        {
          "internalType": "uint256",
          "name": "_votingDelay",
          "type": "uint256"
        }
      ],
      "stateMutability": "nonpayable",
      "type": "constructor"
    },
    {
      "inputs": [],
      "name": "Empty",
      "type": "error"
    },
    {
      "anonymous": false,
      "inputs": [
        {
          "indexed": false,
          "internalType": "uint256",
          "name": "proposalId",
          "type": "uint256"
        }
      ],
      "name": "ProposalCanceled",
      "type": "event"
    },
    {
      "anonymous": false,
      "inputs": [
        {
          "indexed": false,
          "internalType": "uint256",
          "name": "proposalId",
          "type": "uint256"
        },
        {
          "indexed": false,
          "internalType": "address",
          "name": "proposer",
          "type": "address"
        },
        {
          "indexed": false,
          "internalType": "address[]",
          "name": "targets",
          "type": "address[]"
        },
        {
          "indexed": false,
          "internalType": "uint256[]",
          "name": "values",
          "type": "uint256[]"
        },
        {
          "indexed": false,
          "internalType": "string[]",
          "name": "signatures",
          "type": "string[]"
        },
        {
          "indexed": false,
          "internalType": "bytes[]",
          "name": "calldatas",
          "type": "bytes[]"
        },
        {
          "indexed": false,
          "internalType": "uint256",
          "name": "startBlock",
          "type": "uint256"
        },
        {
          "indexed": false,
          "internalType": "uint256",
          "name": "endBlock",
          "type": "uint256"
        },
        {
          "indexed": false,
          "internalType": "string",
          "name": "description",
          "type": "string"
        }
      ],
      "name": "ProposalCreated",
      "type": "event"
    },
    {
      "anonymous": false,
      "inputs": [
        {
          "indexed": false,
          "internalType": "uint256",
          "name": "proposalId",
          "type": "uint256"
        }
      ],
      "name": "ProposalExecuted",
      "type": "event"
    },
    {
      "anonymous": false,
      "inputs": [
        {
          "indexed": false,
          "internalType": "uint256",
          "name": "proposalId",
          "type": "uint256"
        },
        {
          "indexed": false,
          "internalType": "uint256",
          "name": "eta",
          "type": "uint256"
        }
      ],
      "name": "ProposalQueued",
      "type": "event"
    },
    {
      "anonymous": false,
      "inputs": [
        {
          "indexed": false,
          "internalType": "uint256",
          "name": "oldProposalThreshold",
          "type": "uint256"
        },
        {
          "indexed": false,
          "internalType": "uint256",
          "name": "newProposalThreshold",
          "type": "uint256"
        }
      ],
      "name": "ProposalThresholdSet",
      "type": "event"
    },
    {
      "anonymous": false,
      "inputs": [
        {
          "indexed": false,
          "internalType": "uint256",
          "name": "oldQuorumNumerator",
          "type": "uint256"
        },
        {
          "indexed": false,
          "internalType": "uint256",
          "name": "newQuorumNumerator",
          "type": "uint256"
        }
      ],
      "name": "QuorumNumeratorUpdated",
      "type": "event"
    },
    {
      "anonymous": false,
      "inputs": [
        {
          "indexed": false,
          "internalType": "address",
          "name": "oldTimelock",
          "type": "address"
        },
        {
          "indexed": false,
          "internalType": "address",
          "name": "newTimelock",
          "type": "address"
        }
      ],
      "name": "TimelockChange",
      "type": "event"
    },
    {
      "anonymous": false,
      "inputs": [
        {
          "indexed": true,
          "internalType": "address",
          "name": "voter",
          "type": "address"
        },
        {
          "indexed": false,
          "internalType": "uint256",
          "name": "proposalId",
          "type": "uint256"
        },
        {
          "indexed": false,
          "internalType": "uint8",
          "name": "support",
          "type": "uint8"
        },
        {
          "indexed": false,
          "internalType": "uint256",
          "name": "weight",
          "type": "uint256"
        },
        {
          "indexed": false,
          "internalType": "string",
          "name": "reason",
          "type": "string"
        }
      ],
      "name": "VoteCast",
      "type": "event"
    },
    {
      "anonymous": false,
      "inputs": [
        {
          "indexed": true,
          "internalType": "address",
          "name": "voter",
          "type": "address"
        },
        {
          "indexed": false,
          "internalType": "uint256",
          "name": "proposalId",
          "type": "uint256"
        },
        {
          "indexed": false,
          "internalType": "uint8",
          "name": "support",
          "type": "uint8"
        },
        {
          "indexed": false,
          "internalType": "uint256",
          "name": "weight",
          "type": "uint256"
        },
        {
          "indexed": false,
          "internalType": "string",
          "name": "reason",
          "type": "string"
        },
        {
          "indexed": false,
          "internalType": "bytes",
          "name": "params",
          "type": "bytes"
        }
      ],
      "name": "VoteCastWithParams",
      "type": "event"
    },
    {
      "anonymous": false,
      "inputs": [
        {
          "indexed": false,
          "internalType": "uint256",
          "name": "oldVotingDelay",
          "type": "uint256"
        },
        {
          "indexed": false,
          "internalType": "uint256",
          "name": "newVotingDelay",
          "type": "uint256"
        }
      ],
      "name": "VotingDelaySet",
      "type": "event"
    },
    {
      "anonymous": false,
      "inputs": [
        {
          "indexed": false,
          "internalType": "uint256",
          "name": "oldVotingPeriod",
          "type": "uint256"
        },
        {
          "indexed": false,
          "internalType": "uint256",
          "name": "newVotingPeriod",
          "type": "uint256"
        }
      ],
      "name": "VotingPeriodSet",
      "type": "event"
    },
    {
      "inputs": [],
      "name": "BALLOT_TYPEHASH",
      "outputs": [
        {
          "internalType": "bytes32",
          "name": "",
          "type": "bytes32"
        }
      ],
      "stateMutability": "view",
      "type": "function"
    },
    {
      "inputs": [],
      "name": "COUNTING_MODE",
      "outputs": [
        {
          "internalType": "string",
          "name": "",
          "type": "string"
        }
      ],
      "stateMutability": "pure",
      "type": "function"
    },
    {
      "inputs": [],
      "name": "EXTENDED_BALLOT_TYPEHASH",
      "outputs": [
        {
          "internalType": "bytes32",
          "name": "",
          "type": "bytes32"
        }
      ],
      "stateMutability": "view",
      "type": "function"
    },
    {
      "inputs": [
        {
          "internalType": "uint256",
          "name": "proposalId",
          "type": "uint256"
        },
        {
          "internalType": "uint8",
          "name": "support",
          "type": "uint8"
        }
      ],
      "name": "castVote",
      "outputs": [
        {
          "internalType": "uint256",
          "name": "",
          "type": "uint256"
        }
      ],
      "stateMutability": "nonpayable",
      "type": "function"
    },
    {
      "inputs": [
        {
          "internalType": "uint256",
          "name": "proposalId",
          "type": "uint256"
        },
        {
          "internalType": "uint8",
          "name": "support",
          "type": "uint8"
        },
        {
          "internalType": "uint8",
          "name": "v",
          "type": "uint8"
        },
        {
          "internalType": "bytes32",
          "name": "r",
          "type": "bytes32"
        },
        {
          "internalType": "bytes32",
          "name": "s",
          "type": "bytes32"
        }
      ],
      "name": "castVoteBySig",
      "outputs": [
        {
          "internalType": "uint256",
          "name": "",
          "type": "uint256"
        }
      ],
      "stateMutability": "nonpayable",
      "type": "function"
    },
    {
      "inputs": [
        {
          "internalType": "uint256",
          "name": "proposalId",
          "type": "uint256"
        },
        {
          "internalType": "uint8",
          "name": "support",
          "type": "uint8"
        },
        {
          "internalType": "string",
          "name": "reason",
          "type": "string"
        }
      ],
      "name": "castVoteWithReason",
      "outputs": [
        {
          "internalType": "uint256",
          "name": "",
          "type": "uint256"
        }
      ],
      "stateMutability": "nonpayable",
      "type": "function"
    },
    {
      "inputs": [
        {
          "internalType": "uint256",
          "name": "proposalId",
          "type": "uint256"
        },
        {
          "internalType": "uint8",
          "name": "support",
          "type": "uint8"
        },
        {
          "internalType": "string",
          "name": "reason",
          "type": "string"
        },
        {
          "internalType": "bytes",
          "name": "params",
          "type": "bytes"
        }
      ],
      "name": "castVoteWithReasonAndParams",
      "outputs": [
        {
          "internalType": "uint256",
          "name": "",
          "type": "uint256"
        }
      ],
      "stateMutability": "nonpayable",
      "type": "function"
    },
    {
      "inputs": [
        {
          "internalType": "uint256",
          "name": "proposalId",
          "type": "uint256"
        },
        {
          "internalType": "uint8",
          "name": "support",
          "type": "uint8"
        },
        {
          "internalType": "string",
          "name": "reason",
          "type": "string"
        },
        {
          "internalType": "bytes",
          "name": "params",
          "type": "bytes"
        },
        {
          "internalType": "uint8",
          "name": "v",
          "type": "uint8"
        },
        {
          "internalType": "bytes32",
          "name": "r",
          "type": "bytes32"
        },
        {
          "internalType": "bytes32",
          "name": "s",
          "type": "bytes32"
        }
      ],
      "name": "castVoteWithReasonAndParamsBySig",
      "outputs": [
        {
          "internalType": "uint256",
          "name": "",
          "type": "uint256"
        }
      ],
      "stateMutability": "nonpayable",
      "type": "function"
    },
    {
      "inputs": [
        {
          "internalType": "address[]",
          "name": "targets",
          "type": "address[]"
        },
        {
          "internalType": "uint256[]",
          "name": "values",
          "type": "uint256[]"
        },
        {
          "internalType": "bytes[]",
          "name": "calldatas",
          "type": "bytes[]"
        },
        {
          "internalType": "bytes32",
          "name": "descriptionHash",
          "type": "bytes32"
        }
      ],
      "name": "execute",
      "outputs": [
        {
          "internalType": "uint256",
          "name": "",
          "type": "uint256"
        }
      ],
      "stateMutability": "payable",
      "type": "function"
    },
    {
      "inputs": [
        {
          "internalType": "uint256",
          "name": "proposalId",
          "type": "uint256"
        }
      ],
      "name": "getTotalVotesForProposal",
      "outputs": [
        {
          "internalType": "uint256",
          "name": "",
          "type": "uint256"
        }
      ],
      "stateMutability": "view",
      "type": "function"
    },
    {
      "inputs": [
        {
          "internalType": "address",
          "name": "account",
          "type": "address"
        },
        {
          "internalType": "uint256",
          "name": "blockNumber",
          "type": "uint256"
        }
      ],
      "name": "getVotes",
      "outputs": [
        {
          "internalType": "uint256",
          "name": "",
          "type": "uint256"
        }
      ],
      "stateMutability": "view",
      "type": "function"
    },
    {
      "inputs": [
        {
          "internalType": "address",
          "name": "account",
          "type": "address"
        },
        {
          "internalType": "uint256",
          "name": "blockNumber",
          "type": "uint256"
        },
        {
          "internalType": "bytes",
          "name": "params",
          "type": "bytes"
        }
      ],
      "name": "getVotesWithParams",
      "outputs": [
        {
          "internalType": "uint256",
          "name": "",
          "type": "uint256"
        }
      ],
      "stateMutability": "view",
      "type": "function"
    },
    {
      "inputs": [
        {
          "internalType": "uint256",
          "name": "proposalId",
          "type": "uint256"
        },
        {
          "internalType": "address",
          "name": "account",
          "type": "address"
        }
      ],
      "name": "hasVoted",
      "outputs": [
        {
          "internalType": "bool",
          "name": "",
          "type": "bool"
        }
      ],
      "stateMutability": "view",
      "type": "function"
    },
    {
      "inputs": [
        {
          "internalType": "address[]",
          "name": "targets",
          "type": "address[]"
        },
        {
          "internalType": "uint256[]",
          "name": "values",
          "type": "uint256[]"
        },
        {
          "internalType": "bytes[]",
          "name": "calldatas",
          "type": "bytes[]"
        },
        {
          "internalType": "bytes32",
          "name": "descriptionHash",
          "type": "bytes32"
        }
      ],
      "name": "hashProposal",
      "outputs": [
        {
          "internalType": "uint256",
          "name": "",
          "type": "uint256"
        }
      ],
      "stateMutability": "pure",
      "type": "function"
    },
    {
      "inputs": [],
      "name": "name",
      "outputs": [
        {
          "internalType": "string",
          "name": "",
          "type": "string"
        }
      ],
      "stateMutability": "view",
      "type": "function"
    },
    {
      "inputs": [
        {
          "internalType": "address",
          "name": "",
          "type": "address"
        },
        {
          "internalType": "address",
          "name": "",
          "type": "address"
        },
        {
          "internalType": "uint256[]",
          "name": "",
          "type": "uint256[]"
        },
        {
          "internalType": "uint256[]",
          "name": "",
          "type": "uint256[]"
        },
        {
          "internalType": "bytes",
          "name": "",
          "type": "bytes"
        }
      ],
      "name": "onERC1155BatchReceived",
      "outputs": [
        {
          "internalType": "bytes4",
          "name": "",
          "type": "bytes4"
        }
      ],
      "stateMutability": "nonpayable",
      "type": "function"
    },
    {
      "inputs": [
        {
          "internalType": "address",
          "name": "",
          "type": "address"
        },
        {
          "internalType": "address",
          "name": "",
          "type": "address"
        },
        {
          "internalType": "uint256",
          "name": "",
          "type": "uint256"
        },
        {
          "internalType": "uint256",
          "name": "",
          "type": "uint256"
        },
        {
          "internalType": "bytes",
          "name": "",
          "type": "bytes"
        }
      ],
      "name": "onERC1155Received",
      "outputs": [
        {
          "internalType": "bytes4",
          "name": "",
          "type": "bytes4"
        }
      ],
      "stateMutability": "nonpayable",
      "type": "function"
    },
    {
      "inputs": [
        {
          "internalType": "address",
          "name": "",
          "type": "address"
        },
        {
          "internalType": "address",
          "name": "",
          "type": "address"
        },
        {
          "internalType": "uint256",
          "name": "",
          "type": "uint256"
        },
        {
          "internalType": "bytes",
          "name": "",
          "type": "bytes"
        }
      ],
      "name": "onERC721Received",
      "outputs": [
        {
          "internalType": "bytes4",
          "name": "",
          "type": "bytes4"
        }
      ],
      "stateMutability": "nonpayable",
      "type": "function"
    },
    {
      "inputs": [
        {
          "internalType": "uint256",
          "name": "proposalId",
          "type": "uint256"
        }
      ],
      "name": "proposalDeadline",
      "outputs": [
        {
          "internalType": "uint256",
          "name": "",
          "type": "uint256"
        }
      ],
      "stateMutability": "view",
      "type": "function"
    },
    {
      "inputs": [
        {
          "internalType": "uint256",
          "name": "proposalId",
          "type": "uint256"
        }
      ],
      "name": "proposalEta",
      "outputs": [
        {
          "internalType": "uint256",
          "name": "",
          "type": "uint256"
        }
      ],
      "stateMutability": "view",
      "type": "function"
    },
    {
      "inputs": [
        {
          "internalType": "uint256",
          "name": "proposalId",
          "type": "uint256"
        }
      ],
      "name": "proposalSnapshot",
      "outputs": [
        {
          "internalType": "uint256",
          "name": "",
          "type": "uint256"
        }
      ],
      "stateMutability": "view",
      "type": "function"
    },
    {
      "inputs": [],
      "name": "proposalThreshold",
      "outputs": [
        {
          "internalType": "uint256",
          "name": "",
          "type": "uint256"
        }
      ],
      "stateMutability": "view",
      "type": "function"
    },
    {
      "inputs": [
        {
          "internalType": "uint256",
          "name": "proposalId",
          "type": "uint256"
        }
      ],
      "name": "proposalVotes",
      "outputs": [
        {
          "internalType": "uint256",
          "name": "againstVotes",
          "type": "uint256"
        },
        {
          "internalType": "uint256",
          "name": "forVotes",
          "type": "uint256"
        },
        {
          "internalType": "uint256",
          "name": "abstainVotes",
          "type": "uint256"
        }
      ],
      "stateMutability": "view",
      "type": "function"
    },
    {
      "inputs": [
        {
          "internalType": "address[]",
          "name": "targets",
          "type": "address[]"
        },
        {
          "internalType": "uint256[]",
          "name": "values",
          "type": "uint256[]"
        },
        {
          "internalType": "bytes[]",
          "name": "calldatas",
          "type": "bytes[]"
        },
        {
          "internalType": "string",
          "name": "description",
          "type": "string"
        }
      ],
      "name": "propose",
      "outputs": [
        {
          "internalType": "uint256",
          "name": "",
          "type": "uint256"
        }
      ],
      "stateMutability": "nonpayable",
      "type": "function"
    },
    {
      "inputs": [
        {
          "internalType": "address[]",
          "name": "targets",
          "type": "address[]"
        },
        {
          "internalType": "uint256[]",
          "name": "values",
          "type": "uint256[]"
        },
        {
          "internalType": "bytes[]",
          "name": "calldatas",
          "type": "bytes[]"
        },
        {
          "internalType": "bytes32",
          "name": "descriptionHash",
          "type": "bytes32"
        }
      ],
      "name": "queue",
      "outputs": [
        {
          "internalType": "uint256",
          "name": "",
          "type": "uint256"
        }
      ],
      "stateMutability": "nonpayable",
      "type": "function"
    },
    {
      "inputs": [
        {
          "internalType": "uint256",
          "name": "blockNumber",
          "type": "uint256"
        }
      ],
      "name": "quorum",
      "outputs": [
        {
          "internalType": "uint256",
          "name": "",
          "type": "uint256"
        }
      ],
      "stateMutability": "view",
      "type": "function"
    },
    {
      "inputs": [],
      "name": "quorumDenominator",
      "outputs": [
        {
          "internalType": "uint256",
          "name": "",
          "type": "uint256"
        }
      ],
      "stateMutability": "view",
      "type": "function"
    },
    {
      "inputs": [
        {
          "internalType": "uint256",
          "name": "blockNumber",
          "type": "uint256"
        }
      ],
      "name": "quorumNumerator",
      "outputs": [
        {
          "internalType": "uint256",
          "name": "",
          "type": "uint256"
        }
      ],
      "stateMutability": "view",
      "type": "function"
    },
    {
      "inputs": [],
      "name": "quorumNumerator",
      "outputs": [
        {
          "internalType": "uint256",
          "name": "",
          "type": "uint256"
        }
      ],
      "stateMutability": "view",
      "type": "function"
    },
    {
      "inputs": [
        {
          "internalType": "address",
          "name": "target",
          "type": "address"
        },
        {
          "internalType": "uint256",
          "name": "value",
          "type": "uint256"
        },
        {
          "internalType": "bytes",
          "name": "data",
          "type": "bytes"
        }
      ],
      "name": "relay",
      "outputs": [],
      "stateMutability": "nonpayable",
      "type": "function"
    },
    {
      "inputs": [
        {
          "internalType": "uint256",
          "name": "newProposalThreshold",
          "type": "uint256"
        }
      ],
      "name": "setProposalThreshold",
      "outputs": [],
      "stateMutability": "nonpayable",
      "type": "function"
    },
    {
      "inputs": [
        {
          "internalType": "uint256",
          "name": "newVotingDelay",
          "type": "uint256"
        }
      ],
      "name": "setVotingDelay",
      "outputs": [],
      "stateMutability": "nonpayable",
      "type": "function"
    },
    {
      "inputs": [
        {
          "internalType": "uint256",
          "name": "newVotingPeriod",
          "type": "uint256"
        }
      ],
      "name": "setVotingPeriod",
      "outputs": [],
      "stateMutability": "nonpayable",
      "type": "function"
    },
    {
      "inputs": [
        {
          "internalType": "uint256",
          "name": "proposalId",
          "type": "uint256"
        }
      ],
      "name": "state",
      "outputs": [
        {
          "internalType": "enum IGovernor.ProposalState",
          "name": "",
          "type": "uint8"
        }
      ],
      "stateMutability": "view",
      "type": "function"
    },
    {
      "inputs": [
        {
          "internalType": "bytes4",
          "name": "interfaceId",
          "type": "bytes4"
        }
      ],
      "name": "supportsInterface",
      "outputs": [
        {
          "internalType": "bool",
          "name": "",
          "type": "bool"
        }
      ],
      "stateMutability": "view",
      "type": "function"
    },
    {
      "inputs": [],
      "name": "timelock",
      "outputs": [
        {
          "internalType": "address",
          "name": "",
          "type": "address"
        }
      ],
      "stateMutability": "view",
      "type": "function"
    },
    {
      "inputs": [],
      "name": "token",
      "outputs": [
        {
          "internalType": "contract IVotes",
          "name": "",
          "type": "address"
        }
      ],
      "stateMutability": "view",
      "type": "function"
    },
    {
      "inputs": [
        {
          "internalType": "uint256",
          "name": "",
          "type": "uint256"
        }
      ],
      "name": "totalVotesForProposal",
      "outputs": [
        {
          "internalType": "uint256",
          "name": "",
          "type": "uint256"
        }
      ],
      "stateMutability": "view",
      "type": "function"
    },
    {
      "inputs": [
        {
          "internalType": "uint256",
          "name": "newQuorumNumerator",
          "type": "uint256"
        }
      ],
      "name": "updateQuorumNumerator",
      "outputs": [],
      "stateMutability": "nonpayable",
      "type": "function"
    },
    {
      "inputs": [
        {
          "internalType": "contract TimelockController",
          "name": "newTimelock",
          "type": "address"
        }
      ],
      "name": "updateTimelock",
      "outputs": [],
      "stateMutability": "nonpayable",
      "type": "function"
    },
    {
      "inputs": [],
      "name": "version",
      "outputs": [
        {
          "internalType": "string",
          "name": "",
          "type": "string"
        }
      ],
      "stateMutability": "view",
      "type": "function"
    },
    {
      "inputs": [],
      "name": "votingDelay",
      "outputs": [
        {
          "internalType": "uint256",
          "name": "",
          "type": "uint256"
        }
      ],
      "stateMutability": "view",
      "type": "function"
    },
    {
      "inputs": [],
      "name": "votingPeriod",
      "outputs": [
        {
          "internalType": "uint256",
          "name": "",
          "type": "uint256"
        }
      ],
      "stateMutability": "view",
      "type": "function"
    },
    {
      "stateMutability": "payable",
      "type": "receive"
    }
  ],
  "bytecode": "0x6101606040523480156200001257600080fd5b506040516200481138038062004811833981016040819052620000359162000823565b838386838560016040518060400160405280601081526020016f11dbdd995c9b9bdc90dbdb9d1c9858dd60821b81525080620000766200017a60201b60201c565b815160208084019190912082518383012060e08290526101008190524660a0818152604080517f8b73c3c69bb8fe3d512ecc4cf759cc79239f7b179b0ffacaa9a75d522b39400f81880181905281830187905260608201869052608082019490945230818401528151808203909301835260c00190528051940193909320919290916080523060601b60c05261012052505082516200011f925060009150602084019062000787565b506200012d90508362000195565b6200013882620001d6565b62000143816200027d565b50505060601b6001600160601b031916610140526200016281620002be565b506200016e8162000436565b505050505050620008f4565b6040805180820190915260018152603160f81b602082015290565b60045460408051918252602082018390527fc565b045403dc03c2eea82b81a0465edad9e2e7fc4d97e11421c209da93d7a93910160405180910390a1600455565b600081116200023c5760405162461bcd60e51b815260206004820152602760248201527f476f7665726e6f7253657474696e67733a20766f74696e6720706572696f6420604482015266746f6f206c6f7760c81b60648201526084015b60405180910390fd5b60055460408051918252602082018390527f7e3f7f0708a84de9203036abaa450dccc85ad5ff52f78c170f3edb55cf5e8828910160405180910390a1600555565b60065460408051918252602082018390527fccb45da8d5717e6c4544694297c4ba5cf151d455c9bb0ed4fc7a38411bc05461910160405180910390a1600655565b6064811115620003435760405162461bcd60e51b815260206004820152604360248201527f476f7665726e6f72566f74657351756f72756d4672616374696f6e3a2071756f60448201527f72756d4e756d657261746f72206f7665722071756f72756d44656e6f6d696e616064820152623a37b960e91b608482015260a40162000233565b60006200034f6200049f565b90508015801590620003615750600954155b15620003dc5760096000016040518060400160405280600063ffffffff1681526020016200039a84620004ce60201b620015be1760201c565b6001600160e01b0390811690915282546001810184556000938452602093849020835194909301519091166401000000000263ffffffff909316929092179101555b620003f78260096200053d60201b6200162b1790919060201c565b505060408051828152602081018490527f0553476bf02ef2726e8ce5ced78d63e26e602e4a2257b1f559418e24b4633997910160405180910390a15050565b600a54604080516001600160a01b03928316815291831660208301527f08f74ea46ef7894f65eabfb5e6e695de773a000b47c529ab559178069b226401910160405180910390a1600a80546001600160a01b0319166001600160a01b0392909216919091179055565b60095460009015620004c757620004c26009620006b160201b620017721760201c565b905090565b5060085490565b60006001600160e01b03821115620005395760405162461bcd60e51b815260206004820152602760248201527f53616665436173743a2076616c756520646f65736e27742066697420696e20326044820152663234206269747360c81b606482015260840162000233565b5090565b81546000908190816200055086620006b1565b9050600082118015620005a0575043866200056d6001856200087a565b815481106200058c57634e487b7160e01b600052603260045260246000fd5b60009182526020909120015463ffffffff16145b156200062057620005bc85620004ce60201b620015be1760201c565b86620005ca6001856200087a565b81548110620005e957634e487b7160e01b600052603260045260246000fd5b9060005260206000200160000160046101000a8154816001600160e01b0302191690836001600160e01b03160217905550620006a8565b85600001604051806040016040528062000645436200072060201b620017dc1760201c565b63ffffffff1681526020016200066688620004ce60201b620015be1760201c565b6001600160e01b0390811690915282546001810184556000938452602093849020835194909301519091166401000000000263ffffffff909316929092179101555b95939450505050565b805460009080156200070d5782620006cb6001836200087a565b81548110620006ea57634e487b7160e01b600052603260045260246000fd5b60009182526020909120015464010000000090046001600160e01b031662000710565b60005b6001600160e01b03169392505050565b600063ffffffff821115620005395760405162461bcd60e51b815260206004820152602660248201527f53616665436173743a2076616c756520646f65736e27742066697420696e203360448201526532206269747360d01b606482015260840162000233565b82805462000795906200089e565b90600052602060002090601f016020900481019282620007b9576000855562000804565b82601f10620007d457805160ff191683800117855562000804565b8280016001018555821562000804579182015b8281111562000804578251825591602001919060010190620007e7565b50620005399291505b808211156200053957600081556001016200080d565b600080600080600060a086880312156200083b578081fd5b85516200084881620008db565b60208701519095506200085b81620008db565b6040870151606088015160809098015196999198509695945092505050565b6000828210156200089957634e487b7160e01b81526011600452602481fd5b500390565b600181811c90821680620008b357607f821691505b60208210811415620008d557634e487b7160e01b600052602260045260246000fd5b50919050565b6001600160a01b0381168114620008f157600080fd5b50565b60805160a05160c05160601c60e05161010051610120516101405160601c613eae62000963600039600081816108e60152818161239701526125c801526000612753015260006127a20152600061277d015260006126d6015260006127000152600061272a0152613eae6000f3fe6080604052600436106102605760003560e01c80637b3c71d311610144578063c59057e4116100b6578063ea0217cf1161007a578063ea0217cf14610828578063eb9019d414610848578063ece40cc114610868578063f23a6e6114610888578063f8ce560a146108b4578063fc0c546a146108d457600080fd5b8063c59057e41461072f578063cf1644dc1461074f578063d33219b41461077c578063dd4e2ba5146107ae578063deaaa7cc146107f457600080fd5b8063a890c91011610108578063a890c9101461066e578063ab58fb8e1461068e578063b58131b0146106ae578063bc197c81146106c3578063c01f9e37146106ef578063c28bc2fa1461070f57600080fd5b80637b3c71d3146105e55780637d5e81e21461060557806397c3d334146106255780639a802a6d14610639578063a7713a701461065957600080fd5b80632fe3e261116101dd578063544ffc9c116101a1578063544ffc9c146104e657806354fd4d501461053b57806356781388146105655780635f398a141461058557806360c4247f146105a557806370b0f660146105c557600080fd5b80632fe3e261146104065780633932abb11461043a5780633bccf4fd1461044f5780633e4f49e61461046f578063438596321461049c57600080fd5b806306fdde031161022457806306fdde031461034d578063150b7a021461036f578063160cbed7146103b35780632656227d146103d35780632d63f693146103e657600080fd5b8063013f11f31461028857806301ffc9a7146102c857806302a251a3146102f8578063034201811461030d57806306f3f9e61461032d57600080fd5b36610283573061026e610908565b6001600160a01b03161461028157600080fd5b005b600080fd5b34801561029457600080fd5b506102b56102a3366004613683565b6000908152600c602052604090205490565b6040519081526020015b60405180910390f35b3480156102d457600080fd5b506102e86102e336600461363f565b610921565b60405190151581526020016102bf565b34801561030457600080fd5b506102b5610932565b34801561031957600080fd5b506102b561032836600461379a565b61093d565b34801561033957600080fd5b50610281610348366004613683565b610a35565b34801561035957600080fd5b50610362610acd565b6040516102bf9190613ac1565b34801561037b57600080fd5b5061039a61038a366004613325565b630a85bd0160e11b949350505050565b6040516001600160e01b031990911681526020016102bf565b3480156103bf57600080fd5b506102b56103ce3660046134ce565b610b5f565b6102b56103e13660046134ce565b610dc5565b3480156103f257600080fd5b506102b5610401366004613683565b610f09565b34801561041257600080fd5b506102b57fb3b3f3b703cd84ce352197dcff232b1b5d3cfb2025ce47cf04742d0651f1af8881565b34801561044657600080fd5b506102b5610f40565b34801561045b57600080fd5b506102b561046a36600461383d565b610f4b565b34801561047b57600080fd5b5061048f61048a366004613683565b610fc1565b6040516102bf9190613a99565b3480156104a857600080fd5b506102e86104b736600461369b565b60008281526007602090815260408083206001600160a01b038516845260030190915290205460ff1692915050565b3480156104f257600080fd5b50610520610501366004613683565b6000908152600760205260409020805460018201546002909201549092565b604080519384526020840192909252908201526060016102bf565b34801561054757600080fd5b506040805180820190915260018152603160f81b6020820152610362565b34801561057157600080fd5b506102b56105803660046136ca565b610fcc565b34801561059157600080fd5b506102b56105a0366004613734565b610ff5565b3480156105b157600080fd5b506102b56105c0366004613683565b61103f565b3480156105d157600080fd5b506102816105e0366004613683565b6110e3565b3480156105f157600080fd5b506102b56106003660046136f5565b61116f565b34801561061157600080fd5b506102b5610620366004613559565b6111a6565b34801561063157600080fd5b5060646102b5565b34801561064557600080fd5b506102b5610654366004613478565b6111e7565b34801561066557600080fd5b506102b56111fe565b34801561067a57600080fd5b50610281610689366004613667565b61121a565b34801561069a57600080fd5b506102b56106a9366004613683565b6112a6565b3480156106ba57600080fd5b506102b561134f565b3480156106cf57600080fd5b5061039a6106de36600461327c565b63bc197c8160e01b95945050505050565b3480156106fb57600080fd5b506102b561070a366004613683565b61135a565b34801561071b57600080fd5b5061028161072a36600461341f565b611389565b34801561073b57600080fd5b506102b561074a3660046134ce565b611455565b34801561075b57600080fd5b506102b561076a366004613683565b600c6020526000908152604090205481565b34801561078857600080fd5b50600a546001600160a01b03165b6040516001600160a01b0390911681526020016102bf565b3480156107ba57600080fd5b506040805180820190915260208082527f737570706f72743d627261766f2671756f72756d3d666f722c6162737461696e90820152610362565b34801561080057600080fd5b506102b57f150214d74d59b7d1e90c73fc22ef3d991dd0a76b046543d4d80ab92d2a50328f81565b34801561083457600080fd5b50610281610843366004613683565b61148f565b34801561085457600080fd5b506102b56108633660046133f4565b61151b565b34801561087457600080fd5b50610281610883366004613683565b611527565b34801561089457600080fd5b5061039a6108a336600461338e565b63f23a6e6160e01b95945050505050565b3480156108c057600080fd5b506102b56108cf366004613683565b6115b3565b3480156108e057600080fd5b506107967f000000000000000000000000000000000000000000000000000000000000000081565b600061091c600a546001600160a01b031690565b905090565b600061092c82611841565b92915050565b600061091c60055490565b6000806109e16109d97fb3b3f3b703cd84ce352197dcff232b1b5d3cfb2025ce47cf04742d0651f1af888c8c8c8c60405161097992919061397c565b60405180910390208b805190602001206040516020016109be959493929190948552602085019390935260ff9190911660408401526060830152608082015260a00190565b60405160208183030381529060405280519060200120611866565b8686866118b4565b9050610a278a828b8b8b8080601f0160208091040260200160405190810160405280939291908181526020018383808284376000920191909152508d92506118d2915050565b9a9950505050505050505050565b610a3d610908565b6001600160a01b0316336001600160a01b031614610a765760405162461bcd60e51b8152600401610a6d90613ad4565b60405180910390fd5b30610a7f610908565b6001600160a01b031614610ac15760008036604051610a9f92919061397c565b604051809103902090505b80610ab560026119cd565b14610abf57610aaa565b505b610aca81611a59565b50565b606060008054610adc90613db8565b80601f0160208091040260200160405190810160405280929190818152602001828054610b0890613db8565b8015610b555780601f10610b2a57610100808354040283529160200191610b55565b820191906000526020600020905b815481529060010190602001808311610b3857829003601f168201915b5050505050905090565b600080610b6e86868686611455565b90506004610b7b82610fc1565b6007811115610b9a57634e487b7160e01b600052602160045260246000fd5b14610bf15760405162461bcd60e51b815260206004820152602160248201527f476f7665726e6f723a2070726f706f73616c206e6f74207375636365737366756044820152601b60fa1b6064820152608401610a6d565b600a546040805163793d064960e11b815290516000926001600160a01b03169163f27a0c92916004808301926020929190829003018186803b158015610c3657600080fd5b505afa158015610c4a573d6000803e3d6000fd5b505050506040513d601f19601f82011682018060405250810190610c6e9190613627565b600a5460405163b1c5f42760e01b81529192506001600160a01b03169063b1c5f42790610ca8908a908a908a906000908b906004016139f3565b60206040518083038186803b158015610cc057600080fd5b505afa158015610cd4573d6000803e3d6000fd5b505050506040513d601f19601f82011682018060405250810190610cf89190613627565b6000838152600b602052604080822092909255600a5491516308f2a0bb60e41b81526001600160a01b0390921691638f2a0bb091610d43918b918b918b91908b908990600401613a41565b600060405180830381600087803b158015610d5d57600080fd5b505af1158015610d71573d6000803e3d6000fd5b505050507f9a2e42fd6722813d69113e7d0079d3d940171428df7373df9c7f7617cfda2892828242610da39190613cef565b6040805192835260208301919091520160405180910390a15095945050505050565b600080610dd486868686611455565b90506000610de182610fc1565b90506004816007811115610e0557634e487b7160e01b600052602160045260246000fd5b1480610e3057506005816007811115610e2e57634e487b7160e01b600052602160045260246000fd5b145b610e875760405162461bcd60e51b815260206004820152602260248201527f476f7665726e6f723a2070726f706f73616c206e6f74207375636365737366756044820152611b1b60f21b6064820152608401610a6d565b600082815260016020818152604092839020600201805460ff191690921790915590518381527f712ae1383f79ac853f8d882153778e0260ef8f03b504e2866e0593e04d2b291f910160405180910390a1610ee58288888888611ba6565b610ef28288888888611c64565b610eff8288888888611ca4565b5095945050505050565b60008181526001602090815260408083208151928301909152546001600160401b0316908190525b6001600160401b031692915050565b600061091c60045490565b604080517f150214d74d59b7d1e90c73fc22ef3d991dd0a76b046543d4d80ab92d2a50328f602082015290810186905260ff851660608201526000908190610f99906109d9906080016109be565b9050610fb687828860405180602001604052806000815250611ce1565b979650505050505050565b600061092c82611d04565b600080339050610fed84828560405180602001604052806000815250611ce1565b949350505050565b600080339050610fb687828888888080601f0160208091040260200160405190810160405280939291908181526020018383808284376000920191909152508a92506118d2915050565b60095460009080611054575050600854919050565b60006009611063600184613d71565b8154811061108157634e487b7160e01b600052603260045260246000fd5b60009182526020918290206040805180820190915291015463ffffffff81168083526401000000009091046001600160e01b031692820192909252915084106110d857602001516001600160e01b03169392505050565b610fed600985611e7a565b6110eb610908565b6001600160a01b0316336001600160a01b03161461111b5760405162461bcd60e51b8152600401610a6d90613ad4565b30611124610908565b6001600160a01b031614611166576000803660405161114492919061397c565b604051809103902090505b8061115a60026119cd565b146111645761114f565b505b610aca81611fa5565b6000848152600c60205260408120805433918361118b83613df3565b919050555061119c86868686611fe6565b9695505050505050565b60006111d26040518060400160405280600981526020016870726f706f73696e6760b81b81525061205a565b6111de8585858561209d565b95945050505050565b60006111f484848461236e565b90505b9392505050565b600954600090156112135761091c6009611772565b5060085490565b611222610908565b6001600160a01b0316336001600160a01b0316146112525760405162461bcd60e51b8152600401610a6d90613ad4565b3061125b610908565b6001600160a01b03161461129d576000803660405161127b92919061397c565b604051809103902090505b8061129160026119cd565b1461129b57611286565b505b610aca81612413565b600a546000828152600b602052604080822054905163d45c443560e01b81526004810191909152909182916001600160a01b039091169063d45c44359060240160206040518083038186803b1580156112fe57600080fd5b505afa158015611312573d6000803e3d6000fd5b505050506040513d601f19601f820116820180604052508101906113369190613627565b90508060011461134657806111f7565b60009392505050565b600061091c60065490565b60008181526001602081815260408084208151928301909152909101546001600160401b031690819052610f31565b611391610908565b6001600160a01b0316336001600160a01b0316146113c15760405162461bcd60e51b8152600401610a6d90613ad4565b306113ca610908565b6001600160a01b03161461140c57600080366040516113ea92919061397c565b604051809103902090505b8061140060026119cd565b1461140a576113f5565b505b61144e8483838080601f01602080910402602001604051908101604052809392919081815260200183838082843760009201919091525088925061247c915050565b5050505050565b60008484848460405160200161146e94939291906139a8565b60408051601f19818403018152919052805160209091012095945050505050565b611497610908565b6001600160a01b0316336001600160a01b0316146114c75760405162461bcd60e51b8152600401610a6d90613ad4565b306114d0610908565b6001600160a01b03161461151257600080366040516114f092919061397c565b604051809103902090505b8061150660026119cd565b14611510576114fb565b505b610aca816124a2565b60006111f78383612543565b61152f610908565b6001600160a01b0316336001600160a01b03161461155f5760405162461bcd60e51b8152600401610a6d90613ad4565b30611568610908565b6001600160a01b0316146115aa576000803660405161158892919061397c565b604051809103902090505b8061159e60026119cd565b146115a857611593565b505b610aca81612564565b600061092c826125a5565b60006001600160e01b038211156116275760405162461bcd60e51b815260206004820152602760248201527f53616665436173743a2076616c756520646f65736e27742066697420696e20326044820152663234206269747360c81b6064820152608401610a6d565b5090565b815460009081908161163c86611772565b905060008211801561168857504386611656600185613d71565b8154811061167457634e487b7160e01b600052603260045260246000fd5b60009182526020909120015463ffffffff16145b156116f657611696856115be565b866116a2600185613d71565b815481106116c057634e487b7160e01b600052603260045260246000fd5b9060005260206000200160000160046101000a8154816001600160e01b0302191690836001600160e01b03160217905550611764565b85600001604051806040016040528061170e436117dc565b63ffffffff168152602001611722886115be565b6001600160e01b0390811690915282546001810184556000938452602093849020835194909301519091166401000000000263ffffffff909316929092179101555b9250839150505b9250929050565b805460009080156117c95782611789600183613d71565b815481106117a757634e487b7160e01b600052603260045260246000fd5b60009182526020909120015464010000000090046001600160e01b03166117cc565b60005b6001600160e01b03169392505050565b600063ffffffff8211156116275760405162461bcd60e51b815260206004820152602660248201527f53616665436173743a2076616c756520646f65736e27742066697420696e203360448201526532206269747360d01b6064820152608401610a6d565b60006001600160e01b03198216636e665ced60e01b148061092c575061092c8261265e565b600061092c6118736126c9565b8360405161190160f01b6020820152602281018390526042810182905260009060620160405160208183030381529060405280519060200120905092915050565b60008060006118c5878787876127f0565b91509150610eff816128dd565b6000858152600160205260408120816118ea88610fc1565b604080516020810190915283546001600160401b0316908190529091506000906119169089908761236e565b90506119258989898489612ade565b845161197757876001600160a01b03167fb8e138887d0aa13bab447e82de9d5c1777041ecd21ca36ba824ff1e6c07ddda48a89848a60405161196a9493929190613c3a565b60405180910390a26119c1565b876001600160a01b03167fe2babfbac5889a709b63bb7f598b324e08bc5a4fb9ec647fb3cbc9ec07eb87128a89848a8a6040516119b8959493929190613c62565b60405180910390a25b98975050505050505050565b60006119ec8254600f81810b810b600160801b909204810b900b131590565b15611a0a57604051631ed9509560e11b815260040160405180910390fd5b508054600f90810b80820b820b600090815260018085016020526040822080549290558454920190920b6001600160801b03166fffffffffffffffffffffffffffffffff199091161790915590565b6064811115611adc5760405162461bcd60e51b815260206004820152604360248201527f476f7665726e6f72566f74657351756f72756d4672616374696f6e3a2071756f60448201527f72756d4e756d657261746f72206f7665722071756f72756d44656e6f6d696e616064820152623a37b960e91b608482015260a401610a6d565b6000611ae66111fe565b90508015801590611af75750600954155b15611b5c57604080518082019091526000815260099060208101611b1a846115be565b6001600160e01b0390811690915282546001810184556000938452602093849020835194909301519091166401000000000263ffffffff909316929092179101555b611b6760098361162b565b505060408051828152602081018490527f0553476bf02ef2726e8ce5ced78d63e26e602e4a2257b1f559418e24b4633997910160405180910390a15050565b30611baf610908565b6001600160a01b03161461144e5760005b8451811015611c5c57306001600160a01b0316858281518110611bf357634e487b7160e01b600052603260045260246000fd5b60200260200101516001600160a01b03161415611c4c57611c4c838281518110611c2d57634e487b7160e01b600052603260045260246000fd5b6020026020010151805190602001206002612c5d90919063ffffffff16565b611c5581613df3565b9050611bc0565b505050505050565b611c976040518060400160405280601281526020017165786365637574696e67212121212121212160701b81525061205a565b61144e8585858585612ca3565b30611cad610908565b6001600160a01b03161461144e57600254600f81810b810b600160801b909204810b900b131561144e57600060025561144e565b60006111de85858585611cff60408051602081019091526000815290565b6118d2565b600080611d1083612d17565b90506004816007811115611d3457634e487b7160e01b600052602160045260246000fd5b14611d3f5792915050565b6000838152600b602052604090205480611d5a575092915050565b600a54604051632ab0f52960e01b8152600481018390526001600160a01b0390911690632ab0f5299060240160206040518083038186803b158015611d9e57600080fd5b505afa158015611db2573d6000803e3d6000fd5b505050506040513d601f19601f82011682018060405250810190611dd69190613607565b15611de5575060079392505050565b600a54604051632c258a9f60e11b8152600481018390526001600160a01b039091169063584b153e9060240160206040518083038186803b158015611e2957600080fd5b505afa158015611e3d573d6000803e3d6000fd5b505050506040513d601f19601f82011682018060405250810190611e619190613607565b15611e70575060059392505050565b5060029392505050565b6000438210611ecb5760405162461bcd60e51b815260206004820181905260248201527f436865636b706f696e74733a20626c6f636b206e6f7420796574206d696e65646044820152606401610a6d565b825460005b81811015611f3e576000611ee48284612e23565b905084866000018281548110611f0a57634e487b7160e01b600052603260045260246000fd5b60009182526020909120015463ffffffff161115611f2a57809250611f38565b611f35816001613cef565b91505b50611ed0565b8115611f905784611f50600184613d71565b81548110611f6e57634e487b7160e01b600052603260045260246000fd5b60009182526020909120015464010000000090046001600160e01b0316611f93565b60005b6001600160e01b031695945050505050565b60045460408051918252602082018390527fc565b045403dc03c2eea82b81a0465edad9e2e7fc4d97e11421c209da93d7a93910160405180910390a1600455565b600080611ff286610fc1565b600781111561201157634e487b7160e01b600052602160045260246000fd5b90506000339050610fb687828888888080601f016020809104026020016040519081016040528093929190818152602001838380828437600092019190915250611ce192505050565b610aca8160405160240161206e9190613ac1565b60408051601f198184030181529190526020810180516001600160e01b031663104c13eb60e21b179052612e3e565b60006120a761134f565b6120b633610863600143613d71565b101561211e5760405162461bcd60e51b815260206004820152603160248201527f476f7665726e6f723a2070726f706f73657220766f7465732062656c6f7720706044820152701c9bdc1bdcd85b081d1a1c995cda1bdb19607a1b6064820152608401610a6d565b60006121338686868680519060200120611455565b905084518651146121565760405162461bcd60e51b8152600401610a6d90613b0b565b83518651146121775760405162461bcd60e51b8152600401610a6d90613b0b565b60008651116121c85760405162461bcd60e51b815260206004820152601860248201527f476f7665726e6f723a20656d7074792070726f706f73616c00000000000000006044820152606401610a6d565b600081815260016020908152604091829020825191820190925281546001600160401b031690819052156122485760405162461bcd60e51b815260206004820152602160248201527f476f7665726e6f723a2070726f706f73616c20616c72656164792065786973746044820152607360f81b6064820152608401610a6d565b600061225a612255610f40565b612e5f565b61226343612e5f565b61226d9190613d07565b9050600061227c612255610932565b6122869083613d07565b835467ffffffffffffffff19166001600160401b038416178455905060018301805467ffffffffffffffff19166001600160401b0383161790557f7d84a6263ae0d98d3329bd7b46bb4e8d6f98cd35a7adb45c274c8b7fd5ebd5e084338b8b8d516001600160401b0381111561230c57634e487b7160e01b600052604160045260246000fd5b60405190808252806020026020018201604052801561233f57816020015b606081526020019060019003908161232a5790505b508c88888e60405161235999989796959493929190613b4c565b60405180910390a15091979650505050505050565b604051630748d63560e31b81526001600160a01b038481166004830152602482018490526000917f000000000000000000000000000000000000000000000000000000000000000090911690633a46b1a89060440160206040518083038186803b1580156123db57600080fd5b505afa1580156123ef573d6000803e3d6000fd5b505050506040513d601f19601f820116820180604052508101906111f49190613627565b600a54604080516001600160a01b03928316815291831660208301527f08f74ea46ef7894f65eabfb5e6e695de773a000b47c529ab559178069b226401910160405180910390a1600a80546001600160a01b0319166001600160a01b0392909216919091179055565b60606111f4848484604051806060016040528060298152602001613e5060299139612ec7565b600081116125025760405162461bcd60e51b815260206004820152602760248201527f476f7665726e6f7253657474696e67733a20766f74696e6720706572696f6420604482015266746f6f206c6f7760c81b6064820152608401610a6d565b60055460408051918252602082018390527f7e3f7f0708a84de9203036abaa450dccc85ad5ff52f78c170f3edb55cf5e8828910160405180910390a1600555565b60006111f7838361255f60408051602081019091526000815290565b61236e565b60065460408051918252602082018390527fccb45da8d5717e6c4544694297c4ba5cf151d455c9bb0ed4fc7a38411bc05461910160405180910390a1600655565b600060646125b28361103f565b604051632394e7a360e21b8152600481018590527f00000000000000000000000000000000000000000000000000000000000000006001600160a01b031690638e539e8c9060240160206040518083038186803b15801561261257600080fd5b505afa158015612626573d6000803e3d6000fd5b505050506040513d601f19601f8201168201806040525081019061264a9190613627565b6126549190613d52565b61092c9190613d32565b60006001600160e01b0319821663bf26d89760e01b148061268f57506001600160e01b031982166379dd796f60e01b145b806126aa57506001600160e01b03198216630271189760e51b145b8061092c57506301ffc9a760e01b6001600160e01b031983161461092c565b6000306001600160a01b037f00000000000000000000000000000000000000000000000000000000000000001614801561272257507f000000000000000000000000000000000000000000000000000000000000000046145b1561274c57507f000000000000000000000000000000000000000000000000000000000000000090565b50604080517f00000000000000000000000000000000000000000000000000000000000000006020808301919091527f0000000000000000000000000000000000000000000000000000000000000000828401527f000000000000000000000000000000000000000000000000000000000000000060608301524660808301523060a0808401919091528351808403909101815260c0909201909252805191012090565b6000807f7fffffffffffffffffffffffffffffff5d576e7357a4501ddfe92f46681b20a083111561282757506000905060036128d4565b8460ff16601b1415801561283f57508460ff16601c14155b1561285057506000905060046128d4565b6040805160008082526020820180845289905260ff881692820192909252606081018690526080810185905260019060a0016020604051602081039080840390855afa1580156128a4573d6000803e3d6000fd5b5050604051601f1901519150506001600160a01b0381166128cd576000600192509250506128d4565b9150600090505b94509492505050565b60008160048111156128ff57634e487b7160e01b600052602160045260246000fd5b14156129085750565b600181600481111561292a57634e487b7160e01b600052602160045260246000fd5b14156129785760405162461bcd60e51b815260206004820152601860248201527f45434453413a20696e76616c6964207369676e617475726500000000000000006044820152606401610a6d565b600281600481111561299a57634e487b7160e01b600052602160045260246000fd5b14156129e85760405162461bcd60e51b815260206004820152601f60248201527f45434453413a20696e76616c6964207369676e6174757265206c656e677468006044820152606401610a6d565b6003816004811115612a0a57634e487b7160e01b600052602160045260246000fd5b1415612a635760405162461bcd60e51b815260206004820152602260248201527f45434453413a20696e76616c6964207369676e6174757265202773272076616c604482015261756560f01b6064820152608401610a6d565b6004816004811115612a8557634e487b7160e01b600052602160045260246000fd5b1415610aca5760405162461bcd60e51b815260206004820152602260248201527f45434453413a20696e76616c6964207369676e6174757265202776272076616c604482015261756560f01b6064820152608401610a6d565b60008581526007602090815260408083206001600160a01b0388168452600381019092529091205460ff1615612b665760405162461bcd60e51b815260206004820152602760248201527f476f7665726e6f72566f74696e6753696d706c653a20766f746520616c726561604482015266191e4818d85cdd60ca1b6064820152608401610a6d565b6001600160a01b03851660009081526003820160205260408120805460ff1916600117905560ff168460ff161415612bb75782816000016000828254612bac9190613cef565b90915550611c5c9050565b60ff841660011415612bd75782816001016000828254612bac9190613cef565b60ff841660021415612bf75782816002016000828254612bac9190613cef565b60405162461bcd60e51b815260206004820152603560248201527f476f7665726e6f72566f74696e6753696d706c653a20696e76616c69642076616044820152746c756520666f7220656e756d20566f74655479706560581b6064820152608401610a6d565b8154600160801b90819004600f90810b80820b820b6000908152600180870160205260409091209490945584549301900b6001600160801b039081169091029116179055565b600a5460405163e38335e560e01b81526001600160a01b039091169063e38335e5903490612cde9088908890889060009089906004016139f3565b6000604051808303818588803b158015612cf757600080fd5b505af1158015612d0b573d6000803e3d6000fd5b50505050505050505050565b6000818152600160205260408120600281015460ff1615612d3b5750600792915050565b6002810154610100900460ff1615612d565750600292915050565b6000612d6184610f09565b905080612db05760405162461bcd60e51b815260206004820152601d60248201527f476f7665726e6f723a20756e6b6e6f776e2070726f706f73616c2069640000006044820152606401610a6d565b438110612dc1575060009392505050565b6000612dcc8561135a565b9050438110612de057506001949350505050565b612de985612fed565b8015612e08575060008581526007602052604090208054600190910154115b15612e1857506004949350505050565b506003949350505050565b6000612e326002848418613d32565b6111f790848416613cef565b80516a636f6e736f6c652e6c6f67602083016000808483855afa5050505050565b60006001600160401b038211156116275760405162461bcd60e51b815260206004820152602660248201527f53616665436173743a2076616c756520646f65736e27742066697420696e203660448201526534206269747360d01b6064820152608401610a6d565b606082471015612f285760405162461bcd60e51b815260206004820152602660248201527f416464726573733a20696e73756666696369656e742062616c616e636520666f6044820152651c8818d85b1b60d21b6064820152608401610a6d565b6001600160a01b0385163b612f7f5760405162461bcd60e51b815260206004820152601d60248201527f416464726573733a2063616c6c20746f206e6f6e2d636f6e74726163740000006044820152606401610a6d565b600080866001600160a01b03168587604051612f9b919061398c565b60006040518083038185875af1925050503d8060008114612fd8576040519150601f19603f3d011682016040523d82523d6000602084013e612fdd565b606091505b5091509150610fb6828286613024565b60008181526007602052604081206002810154600182015461300f9190613cef565b61301b6108cf85610f09565b11159392505050565b606083156130335750816111f7565b8251156130435782518084602001fd5b8160405162461bcd60e51b8152600401610a6d9190613ac1565b60006001600160401b0383111561307657613076613e24565b613089601f8401601f1916602001613c9c565b905082815283838301111561309d57600080fd5b828260208301376000602084830101529392505050565b600082601f8301126130c4578081fd5b813560206130d96130d483613ccc565b613c9c565b80838252828201915082860187848660051b89010111156130f8578586fd5b855b8581101561311f57813561310d81613e3a565b845292840192908401906001016130fa565b5090979650505050505050565b600082601f83011261313c578081fd5b8135602061314c6130d483613ccc565b80838252828201915082860187848660051b890101111561316b578586fd5b855b8581101561311f5781356001600160401b0381111561318a578788fd5b6131988a87838c0101613247565b855250928401929084019060010161316d565b600082601f8301126131bb578081fd5b813560206131cb6130d483613ccc565b80838252828201915082860187848660051b89010111156131ea578586fd5b855b8581101561311f578135845292840192908401906001016131ec565b60008083601f840112613219578182fd5b5081356001600160401b0381111561322f578182fd5b60208301915083602082850101111561176b57600080fd5b600082601f830112613257578081fd5b6111f78383356020850161305d565b803560ff8116811461327757600080fd5b919050565b600080600080600060a08688031215613293578081fd5b853561329e81613e3a565b945060208601356132ae81613e3a565b935060408601356001600160401b03808211156132c9578283fd5b6132d589838a016131ab565b945060608801359150808211156132ea578283fd5b6132f689838a016131ab565b9350608088013591508082111561330b578283fd5b5061331888828901613247565b9150509295509295909350565b6000806000806080858703121561333a578384fd5b843561334581613e3a565b9350602085013561335581613e3a565b92506040850135915060608501356001600160401b03811115613376578182fd5b61338287828801613247565b91505092959194509250565b600080600080600060a086880312156133a5578081fd5b85356133b081613e3a565b945060208601356133c081613e3a565b9350604086013592506060860135915060808601356001600160401b038111156133e8578182fd5b61331888828901613247565b60008060408385031215613406578182fd5b823561341181613e3a565b946020939093013593505050565b60008060008060608587031215613434578182fd5b843561343f81613e3a565b93506020850135925060408501356001600160401b03811115613460578283fd5b61346c87828801613208565b95989497509550505050565b60008060006060848603121561348c578081fd5b833561349781613e3a565b92506020840135915060408401356001600160401b038111156134b8578182fd5b6134c486828701613247565b9150509250925092565b600080600080608085870312156134e3578182fd5b84356001600160401b03808211156134f9578384fd5b613505888389016130b4565b9550602087013591508082111561351a578384fd5b613526888389016131ab565b9450604087013591508082111561353b578384fd5b506135488782880161312c565b949793965093946060013593505050565b6000806000806080858703121561356e578182fd5b84356001600160401b0380821115613584578384fd5b613590888389016130b4565b955060208701359150808211156135a5578384fd5b6135b1888389016131ab565b945060408701359150808211156135c6578384fd5b6135d28883890161312c565b935060608701359150808211156135e7578283fd5b508501601f810187136135f8578182fd5b6133828782356020840161305d565b600060208284031215613618578081fd5b815180151581146111f7578182fd5b600060208284031215613638578081fd5b5051919050565b600060208284031215613650578081fd5b81356001600160e01b0319811681146111f7578182fd5b600060208284031215613678578081fd5b81356111f781613e3a565b600060208284031215613694578081fd5b5035919050565b600080604083850312156136ad578182fd5b8235915060208301356136bf81613e3a565b809150509250929050565b600080604083850312156136dc578182fd5b823591506136ec60208401613266565b90509250929050565b6000806000806060858703121561370a578182fd5b8435935061371a60208601613266565b925060408501356001600160401b03811115613460578283fd5b60008060008060006080868803121561374b578283fd5b8535945061375b60208701613266565b935060408601356001600160401b0380821115613776578485fd5b61378289838a01613208565b9095509350606088013591508082111561330b578283fd5b60008060008060008060008060e0898b0312156137b5578586fd5b883597506137c560208a01613266565b965060408901356001600160401b03808211156137e0578788fd5b6137ec8c838d01613208565b909850965060608b0135915080821115613804578485fd5b506138118b828c01613247565b94505061382060808a01613266565b925060a0890135915060c089013590509295985092959890939650565b600080600080600060a08688031215613854578283fd5b8535945061386460208701613266565b935061387260408701613266565b94979396509394606081013594506080013592915050565b6000815180845260208085019450808401835b838110156138c25781516001600160a01b03168752958201959082019060010161389d565b509495945050505050565b600081518084526020808501808196508360051b81019150828601855b85811015613914578284038952613902848351613950565b988501989350908401906001016138ea565b5091979650505050505050565b6000815180845260208085019450808401835b838110156138c257815187529582019590820190600101613934565b60008151808452613968816020860160208601613d88565b601f01601f19169290920160200192915050565b8183823760009101908152919050565b6000825161399e818460208701613d88565b9190910192915050565b6080815260006139bb608083018761388a565b82810360208401526139cd8187613921565b905082810360408401526139e181866138cd565b91505082606083015295945050505050565b60a081526000613a0660a083018861388a565b8281036020840152613a188188613921565b90508281036040840152613a2c81876138cd565b60608401959095525050608001529392505050565b60c081526000613a5460c083018961388a565b8281036020840152613a668189613921565b90508281036040840152613a7a81886138cd565b60608401969096525050608081019290925260a0909101529392505050565b6020810160088310613abb57634e487b7160e01b600052602160045260246000fd5b91905290565b6020815260006111f76020830184613950565b60208082526018908201527f476f7665726e6f723a206f6e6c79476f7665726e616e63650000000000000000604082015260600190565b60208082526021908201527f476f7665726e6f723a20696e76616c69642070726f706f73616c206c656e67746040820152600d60fb1b606082015260800190565b60006101208b8352602060018060a01b038c1681850152816040850152613b758285018c61388a565b91508382036060850152613b89828b613921565b915083820360808501528189518084528284019150828160051b850101838c01865b83811015613bd957601f19878403018552613bc7838351613950565b94860194925090850190600101613bab565b505086810360a0880152613bed818c6138cd565b945050505050613c0860c08401876001600160401b03169052565b6001600160401b03851660e0840152828103610100840152613c2a8185613950565b9c9b505050505050505050505050565b84815260ff8416602082015282604082015260806060820152600061119c6080830184613950565b85815260ff8516602082015283604082015260a060608201526000613c8a60a0830185613950565b82810360808401526119c18185613950565b604051601f8201601f191681016001600160401b0381118282101715613cc457613cc4613e24565b604052919050565b60006001600160401b03821115613ce557613ce5613e24565b5060051b60200190565b60008219821115613d0257613d02613e0e565b500190565b60006001600160401b03808316818516808303821115613d2957613d29613e0e565b01949350505050565b600082613d4d57634e487b7160e01b81526012600452602481fd5b500490565b6000816000190483118215151615613d6c57613d6c613e0e565b500290565b600082821015613d8357613d83613e0e565b500390565b60005b83811015613da3578181015183820152602001613d8b565b83811115613db2576000848401525b50505050565b600181811c90821680613dcc57607f821691505b60208210811415613ded57634e487b7160e01b600052602260045260246000fd5b50919050565b6000600019821415613e0757613e07613e0e565b5060010190565b634e487b7160e01b600052601160045260246000fd5b634e487b7160e01b600052604160045260246000fd5b6001600160a01b0381168114610aca57600080fdfe416464726573733a206c6f772d6c6576656c2063616c6c20776974682076616c7565206661696c6564a2646970667358221220b3dbfee5285283b9a8e8bacc20cf0f56feb4f0e94ebbe48611e927834819154864736f6c63430008040033",
  "linkReferences": {},
  "deployedLinkReferences": {}
}